:020000040800F2
:1000000000280020D9260008392600083B260008D1
:100010003D2600083F260008412600080000000099
:10002000000000000000000000000000432600085F
:100030004526000800000000472600084926000861
:100040002127000821270008212700082127000870
:100050002127000821270008212700082127000860
:100060002127000821270008212700082127000850
:100070002127000821270008212700082127000840
:100080002127000821270008212700082127000830
:100090002127000821270008212700082127000820
:1000A0002127000821270008212700082127000810
:1000B0002127000821270008000000002127000850
:1000C0002127000800000000000000002127000890
:1000D0000000000021270008212700080000000080
:1000E0002127000821270008212700080000000020
:1000F0000000000000000000000000000000000000
:0C01000000000000000000005FF808F1A3
:10010C0010B5054C237833B9044B13B10448AFF345
:10011C0000800123237010BDA80100200000000006
:10012C006842000808B5034B1BB103490348AFF301
:10013C00008008BD00000000AC01002068420008EF
:10014C00034613F8012B002AFBD1181A013870470B
:10015C000EB410B5ADF20C4D0DF2144353F8042B44
:10016C0004464FF4806102A8019303F053FB012372
:10017C000020A36203F0B6FB02A92061204601F027
:10018C00A9F80DF20C4DBDE8104003B0704700000B
:10019C002DE9F043ADB004460F46164601F062F966
:1001AC00013005D14FF0FF3528462DB0BDE8F08366
:1001BC00636AD90701D49A07F4D494F82030E26921
:1001CC00012B374B02F1FF320CBF98464FF0000861
:1001DC00062AE7D8334B216853F8225005A8D4E9F6
:1001EC0001320DF1480900F0D1F829464846A269C0
:1001FC0000F0B8F8636A1FAD002B3ED02A4BCDF847
:10020C0008900193236928460093A36AE26805A924
:10021C0000F0D0F80295A36931460193A3683846E3
:10022C0000932368214A03F06FFA431C0546B9D0AA
:10023C008642B7D063694BB1311A1D4A381803F0A6
:10024C0063FA05440130ADD0AE42ABD994F82030FE
:10025C00D3B9636A002BA7D0A36A164A0293236909
:10026C00711B0193E368781900930F4B03F04CFA60
:10027C00013097D0B54297D394E74B462846E268B5
:10028C0005A900F0B1F8C5E743460B4A711B781974
:10029C0003F03AFA013085D0B542DAD382E700BFD9
:1002AC0080420008B04800088442000889420008D7
:1002BC00C3420008D14200082145000810B52C2289
:1002CC000021044603F0B4FA012384F82030002006
:1002DC0010BD0A291FD8DFE801F006090B0D0F111C
:1002EC001315171A1C000260002070474260FBE7D0
:1002FC008260F9E7C260F7E70261F5E74261F3E774
:10030C008261F1E7C261EFE780F82020ECE74262FE
:10031C00EAE78262E8E74FF0FF307047F0B5054638
:10032C009BB004A80C4600F001FF2846FFF708FF1D
:10033C002946024604A800F011FF684604A900F003
:10034C0053FF6D46064F04F120062046394615F83A
:10035C00012B023403F00EFAB442F6D11BB0F0BDFF
:10036C002543000810B50446ADF5007D13466846DC
:10037C000A46054903F0FEF921466846FFF7CEFF11
:10038C000DF5007D10BD00BF2D43000810B50446CF
:10039C00ADF5427D009302A813460A46044903F0CA
:1003AC00E9F9214602A8FFF7B9FF0DF5427D10BD12
:1003BC002A43000810B50446ADF5047D88980390D7
:1003CC00879802908698CDE90030134604A80A4617
:1003DC00044903F0CFF9214604A8FFF79FFF0DF560
:1003EC00047D10BD3343000810B50446ADF5027D05
:1003FC00009302A813460A46044903F0BBF92146B0
:10040C0002A8FFF78BFF0DF5027D10BD2A430008F3
:10041C002DE9F041044608460F4615461E46FFF7E7
:10042C008FFE80463946204603F045FA70B300EB48
:10043C000804224612F8011B2029FBD03D29F1D1DA
:10044C00134619781F4620291A4603F10103F8D0E8
:10045C0022290BD118461F4603F0F2F9B0B1C41B88
:10046C00B4420CD3741E0AE02C2B05D0144612F89F
:10047C00013B13F0DF0FF7D1E41BA642F2D9224661
:10048C003946284603F088FA00232B55BDE8F08145
:10049C0010B40B4C207008680A4908600A490B48D4
:1004AC000A800B4A136000220A4B1A70019A0A4BFD
:1004BC00C3F8A023029A10BCC3F8A423FFF7FEBE16
:1004CC00B20E0020AE0E0020AC0E0020A8080020BA
:1004DC00A80E0020A40E0020D40800202DE9F04F17
:1004EC00A34FADF6F43D3B78052B00F2B681DFE867
:1004FC0013F006002300500012017D01E5010023DA
:10050C009C4C1A460121207801F016FB2378984266
:10051C0040F02381984B99491A8801F0A9FB0128D6
:10052C00044604D10020964901F08EFE3C70002058
:10053C000DF6F43DBDE8F08F904B40F2DC51DA78CB
:10054C00904803929A78002402925A78DFF83492F9
:10055C0001921B788C4A00938C4B1B6803F0D4F8E7
:10056C00844B88481E78FFF7EBFD05461FFA80F890
:10057C00AC4201DB0223C7E0A8EB0402304692B286
:10058C0009EB040101F078FB002840F36681044478
:10059C00EEE7784B7B4C1D7840F2DB5201207C4916
:1005AC0001F052FE40F2DB522146284601F01AFCC3
:1005BC00054601F0C9FE002DB9DD00232046754922
:1005CC00635503F078F928B17349012001F03CFE22
:1005DC00052399E02046714903F06DF9002840F09D
:1005EC00958020466E4903F066F900289FD020467E
:1005FC006C4903F060F9002899D06B49E5E70134A8
:10060C002AE0841C2378002B91D04146204603F02D
:10061C0052F900288BD0031B0F2BF2D96349651EAE
:10062C0004F10F0C15F8012F19F8023003F0030335
:10063C00012B11F8013B08BF203219F8036006F0BA
:10064C000306012E08BF20339A42DAD16545E9D161
:10065C00237C3A2BD5D111342378202B01D1A04205
:10066C00CDD80026524D802305F180092A465149E8
:10067C0006702046FFF7CCFE05F1C00A40234A461F
:10068C0020464D49FFF7C4FE05F5807840235246BD
:10069C0020464A49FFF7BCFE05F5887B10234246ED
:1006AC0020464749FFF7B4FE10235A4620464549D9
:1006BC00FFF7AEFE53464A4629464348C5F8A863A1
:1006CC00CDE9008B01F010FE43462A463F49CDE9A7
:1006DC0001AB3F48CDF80090FFF73AFD31463D4A5B
:1006EC003B48FFF7F6FD01213B4A3948FFF7F1FD86
:1006FC00264B06211A683648FFF7EBFD022207212C
:10070C003348FFF7E6FD04233B7010E7DFF8CC809D
:10071C00DFF8CC9076E7174C207801F0CFF9002366
:10072C00304A0693069B934219DD002301211A4699
:10073C00207801F001FA0346207883420DD1002382
:10074C00294A0E930E9B93420DDD0B4B0B491A88D5
:10075C0001F08EFA01283FF43BAF0120E8E6069B3E
:10076C0001330693DEE70E9B01330E93EAE700BFDD
:10077C00A40E0020B20E0020AC0E0020AE0E002005
:10078C0049430008C40100206D430008A80E002056
:10079C00FD430008214400082E4400085E44000874
:1007AC00424500082A4400084B4500086F440008E5
:1007BC00D408002080440008864400088C440008BB
:1007CC009344000897440008A1440008ED44000835
:1007DC00A80800203245000838450008FA430008F4
:1007EC00ED4800081FA107003F0D030001F0ACFD10
:1007FC000EAC00207F4901F027FD21464FF48062AA
:10080C007D48FFF7C5FC7D4D224600207C4901F058
:10081C001BFD0494EB787B4C0393AB7840F2DC51DA
:10082C0002936B78784A01932B7878480093784B35
:10083C00DFF8D8811B6802F067FF207801F03EF9E1
:10084C00002301211A46207801F076F9237898428A
:10085C0005D003206F4901F0F7FC022068E66E4BCF
:10086C0029461A8801F004FA012807D003206B49A5
:10087C0001F0EAFC207801F021F96EE742460020F5
:10088C00674901F0E1FC4046FFF75AFC002506469B
:10089C0094F800901FFA80FAB54202DB05233B70F6
:1008AC00DBE7AAEB0502484692B208EB050101F022
:1008BC00E3F9002840F396800544EDE701205949FF
:1008CC00504C01F0C1FC40F6B83200210EA802F0E9
:1008DC00AFFF257840F6B7320120534901F0B4FC44
:1008EC0040F6B73228460EA901F07CFA061E62DDEE
:1008FC0000274E4DDFF838910EACD5F80080B8F1DA
:10090C00FE0F07DD802249464A4803F045F8A8F15E
:10091C0080032B602A68474814F8011B531C815430
:10092C000022DFF814812B60D8F800A0C254BAF171
:10093C00000F08D1414902F0BEFFA0B30123C5F856
:10094C0000A0C8F800303E493A4802F0B4FF50B35A
:10095C003A2102F075FF30B30130824610F8013BAA
:10096C0003F0FD03202BF8D00DF1180B00212022F1
:10097C00584602F05DFF594600231AF803201AB1BD
:10098C00222A01D01F2B12D14FF0000A5A46012007
:10099C002C490BF803A001F057FC01F0B9FDC8F885
:1009AC0000A0C5F800A00137BE42A6D1BFE50133B7
:1009BC0001F8012BE1E708D12349012001F044FCA7
:1009CC00207801F07BF803239EE62078400100F5A7
:1009DC00427000F071FD1C2802D000287FF4A7ADF6
:1009EC001A49EAE703201A4901F02EFC207801F09D
:1009FC0065F832E77D450008A8080020AE0E0020FF
:100A0C0093450008B20E00209F450008C401002049
:100A1C00A80E002042460008AC0E00205B460008E1
:100A2C00754600088A460008FD430008A40700200C
:100A3C0028080020A8070020A0070020B1460008C5
:100A4C001A470008BD460008DB460008FB460008B4
:100A5C00284700082DE9F04FD0E90367836893B06D
:100A6C00D0F814C0019302AA01F140048B784D78A0
:100A7C001B0443EA05230D7804312B4311F8015C68
:100A8C008C4243EA056342F8043BEFD1029BE84AEF
:100A9C0003991A44019B049C1A4487EA0C033340C3
:100AAC0083EA0C031344E34A06EB73630A4486EAB5
:100ABC0007011940624479401144DF4A03EB31517C
:100ACC00224486EA03040C403A4474401444DB4D3F
:100ADC00059A01EBF434154483EA010222403544B3
:100AEC005A40DDF818E02A44D54D04EBB222754487
:100AFC001D4481EA040313404B40DDF81CE02B44F9
:100B0C00D04D02EB736375440D4484EA0201194025
:100B1C006140DDF820E02944CB4D03EB31517544A5
:100B2C00254482EA03040C405440DDF824A02C44F4
:100B3C00C64D01EBF4345544154483EA01022240BE
:100B4C005A40DDF828E02A44C14D04EBB22275442A
:100B5C001D4481EA040313404B40DDF82CE02B4488
:100B6C00BC4D02EB736375440D4484EA02011940D9
:100B7C00614029440C9D03EB3151A5F524454F3DB3
:100B8C00254482EA03040C405440DDF834E02C4444
:100B9C00B14D01EBF4347544154483EA0102224053
:100BAC005A40DDF838802A44AC4D04EBB22245445F
:100BBC001D4481EA040313404B40DDF83CE02B4418
:100BCC00A74D02EB736375440D4484EA020119408E
:100BDC006140DDF840902944A24D03EB31514D4466
:100BEC00254482EA03040C405440DDF844E02C44D4
:100BFC009D4D01EBF4347544154483EA0102224007
:100C0C005A40DDF80CB02A44984D04EBB2225D44F6
:100C1C001D4484EA02030B406340DDF820B02B44F2
:100C2C00934D02EBF3635D440D4482EA03012140D2
:100C3C005140DDF834B029448E4D03EBF1515D4445
:100C4C00254483EA010414405C40DDF808B02C44D0
:100C5C00894D01EBB4445D44154481EA04021A4009
:100C6C004A40DDF81CB02A44844D04EB32325D441A
:100C7C001D4484EA02030B406340DDF830B02B4482
:100C8C007F4D02EBF3635D440D4482EA0301214086
:100C9C00514029447B4D03EBF1517544254483EAC3
:100CAC00010414405C40DDF818B02C44764D01EB87
:100CBC00B4445D44154481EA04021A404A40DDF80C
:100CCC002CB02A44714D04EB32325D441D4484EA4D
:100CDC0002030B4063402B446D4D02EBF3634D4418
:100CEC000D4482EA030121405140DDF814B029443F
:100CFC00684D03EBF1515D44254483EA0104144033
:100D0C005C40DDF828B02C44634D01EBB4445D44E9
:100D1C00154481EA04021A404A40DDF83CB02A44EA
:100D2C005E4D04EB32325D441D4484EA02030B40F9
:100D3C006340DDF810B02B44594D02EBF3635D4476
:100D4C000D4482EA0301214051402944554D03EBE7
:100D5C00F15155442C4483EA010515405D4025446E
:100D6C00DFF844B101EBB54581EA0504C344934473
:100D7C0004EA03024A405A44DDF81CB005EB323257
:100D8C00ABF5B82BABF2BE6B9B4454405C44474B69
:100D9C00DDF828B002EB34745B440B4485EA0201A5
:100DAC006140DDF834B01944414B04EB71515B44A4
:100DBC002B4482EA04054D401D443E4B01EB354566
:100DCC004B441A4484EA01036B40DDF80CB0134425
:100DDC00394A05EB73235A44224481EA05045C40EA
:100DEC00DDF818B01444354A03EB34745A440A4401
:100DFC0085EA030161401144314A04EB71515244BC
:100E0C00154483EA04024A40DDF830B02A442D4DE3
:100E1C0001EB32425D442B4484EA01055540DDF878
:100E2C003CB01D44284B02EB75255B4423444DE03C
:100E3C0078A46AD756B7C7E8DB702024EECEBDC1C4
:100E4C00AF0F7CF52AC68747134630A8019546FD9F
:100E5C00D8988069AFF7448BBED75C892211906B10
:100E6C00937198FD8E4379A62108B44962251EF62C
:100E7C0040B340C0515A5E26AAC7B6E95D102FD6C2
:100E8C005314440281E6A1D8C8FBD3E7E6CDE12197
:100E9C00D60737C3870DD5F4ED145A4505E9E3A9F8
:100EAC00F8A3EFFCD9026F678A4C2A8D81F6718703
:100EBC0022619D6D0C38E5FD44EABEA4A9CFDE4B42
:100ECC00604BBBF670BCBFBEC67E9B2881EA020499
:100EDC006C40DDF808B01C447E4B05EB34745B446D
:100EEC00194482EA05036340DDF814B00B447A49D7
:100EFC0004EB735359440A4485EA04015940DDF864
:100F0C0020B01144754A03EB31415A442A4484EA17
:100F1C0003054D40DDF82CB01544714A01EB7525E5
:100F2C005A44144483EA01026A4022446D4C05EB96
:100F3C0032724444234481EA050454401C446A4BF5
:100F4C0002EB745473440B4485EA02016140DDF8F2
:100F5C0010B01944654B04EB31415B441D4482EAEB
:100F6C0004034B40DDF808B02B44614D01EB7323B7
:100F7C005D44154463EA04024A402A445D4D03EB88
:100F8C00B2625544254462EA01045C402C445A4D3B
:100F9C0002EBB4544D440D4464EA03015140DDF8B6
:100FAC001C902944554D04EB71414D441D4461EA9C
:100FBC00020363402B44524D01EBF323454415448B
:100FCC0063EA04024A40DDF814802A444D4D03EBD9
:100FDC00B2624544254462EA01045C402C440C9DF9
:100FEC0002EBB454A5F58015A5F683350D4464EADF
:100FFC0003015140DDF80C802944434D04EB714151
:10100C0045441D4461EA02036340DDF828802B440B
:10101C003E4D01EBF3234544154463EA04024A4078
:10102C002A443B4D03EBB2627544254462EA010449
:10103C005C40DDF820E02C44364D02EBB454754492
:10104C000D4464EA03015140DDF83CE02944324D83
:10105C0004EB714175442B4461EA02056540DDF8EF
:10106C0018E01D442D4B01EBF52573441A4465EA39
:10107C0004034B40DDF834E01344294A05EBB36319
:10108C007244144463EA01026A40DDF810E0224421
:10109C00244C03EBB25274440C4462EA05015940EF
:1010AC00DDF82CE02144204C02EB714174442544C2
:1010BC0061EA030454402C44019D0E442B4406EB7E
:1010CC00F4260F4462448360C6600761426113B02A
:1010DC00BDE8F08FFA27A1EA8530EFD4051D88040E
:1010EC0039D0D4D9E599DBE6F87CA21F6556ACC49F
:1010FC00442229F497FF2A43A72394AB39A093FCED
:10110C00C3595B6592CC0C8FD15D84854F7EA86FE3
:10111C00E0E62CFE144301A3A111084E827E53F786
:10112C0035F23ABDBBD2D72A91D386EB10B5044623
:10113C005822002102F07CFB074BA36003F188339B
:10114C00E36003F12943A3F59613A3F68B632361A4
:10115C00A3F18833636110BD012345672DE9F84382
:10116C0014460368D200C3F3C5079B18036028BF5D
:10117C004368054624BF0133436043680E4603EBC6
:10118C0054734360C7B1C7F14008444500F11809D6
:10119C0006D2224609EB0700BDE8F84302F0FCBB7F
:1011AC00424609EB070002F0F7FB49462846FFF7D9
:1011BC0051FC403C46443C44274606EB04083F2F78
:1011CC00A8EB070109D86FF03F03A1095943621836
:1011DC0008D0711A05F11800DEE72846FFF73AFC33
:1011EC00403FECE7BDE8F8832DE9F041D1E90087F9
:1011FC000C46C8F3C505372D94BFC5F13805C5F1AC
:10120C007805064601222046204990B0FFF7A6FF3C
:10121C00013D09D040220021684602F009FB2A4614
:10122C0069462046FFF79AFF6D460023C3F1200064
:10123C00A3F1200128FA03F207FA00F0024327FA7F
:10124C0001F108330A43402B05F8012BEED120465F
:10125C0008226946FFF782FF0023701EA268DA405D
:10126C0000F8012FE268DA4002712269DA4002725A
:10127C006269DA400833202B0273EFD15822002127
:10128C00204610B0BDE8F04102F0D2BA4547000844
:10129C0010B53D2102F0D4FA18B14178222901D0C1
:1012AC00013010BD841C204602F0CAFA0028F8D088
:1012BC00002303702046F4E708B538B1FEF740FF71
:1012CC00FF284FF0FF3098BF002008BD4FF0FF30D3
:1012DC00FBE700002DE9F04F00268FB005460DF11D
:1012EC000808C81D02F0BAFA44463746037813B30F
:1012FC000346184613F8012B202AFAD02C2AF8D0D2
:10130C00CAB13D2144F8040B013602F099FA90B1B0
:10131C004178222909D1023002F092FA58B10130F9
:10132C000C2E00F8017BE1D105E02C21013002F0FC
:10133C0087FA0028F4D10027B74203DB30460FB000
:10134C00BDE8F08F58F8049B0137B9F1000FF3D0CA
:10135C00062249463B4802F09CFA20B94846FFF762
:10136C0097FFE860E8E706224946374802F091FA11
:10137C0020B94846FFF78CFFA860DDE704224946F8
:10138C00324802F086FA044600283BD1EA46484629
:10139C00FFF77EFFD146A346037843B103461846B8
:1013AC0013F8012B202AFAD02C2AF8D08AB9DFF8AE
:1013BC00A0B0002CC0D0013C59F824A00422504607
:1013CC00244902F066FA90B96B6A43F001036B6230
:1013DC00EFE72C214AF8040B013402F031FA002813
:1013EC00E5D0022C00F801BBE1D00124D4E708229F
:1013FC005946504602F04DFA0028DAD16B6A43F098
:10140C000203E4E707224946134802F042FA20B9E6
:10141C004846FFF73DFF68618EE70A2249460F48B0
:10142C0002F037FA002887D14846FFF731FF032234
:10143C000B4902F02EFA00287FF47EAF012385F8C9
:10144C00203079E7474700084E4700085547000809
:10145C005A47000884420008634700086B4700089D
:10146C008042000810B504460068FFF725FF431CB6
:10147C001ED06068FFF720FF411C19D0A069FFF750
:10148C001BFF421C14D0A068FFF716FF431C0FD0A3
:10149C00606918B1FEF754FEFF280AD8606A38B1AB
:1014AC00E068FFF709FF01304FF0FF3018BF002054
:1014BC0010BD4FF0FF30FBE773B50546144CC5F378
:1014CC000726E368984763699847636AC5F3074042
:1014DC00EDB20BB1A36A8BB9236A98473046236AE5
:1014EC0098472846236A9847E36998470546A369B5
:1014FC00984723699847284602B070BD8DF80400C0
:10150C0003218DF805608DF8065001A89847EBE78C
:10151C001C000020F7B50546164C0E46E3689847AC
:10152C0063699847A36A45F00407C5F30740FFB207
:10153C00C5F3072583B9236A98472846236A984739
:10154C003846236A98473046236A9847A3699847D8
:10155C002369984703B0F0BD04218DF804008DF881
:10156C0005508DF806708DF807600DEB010098475B
:10157C00ECE700BF1C0000202DE9F34105461A4C96
:10158C000E46E3681746984763699847636AC5F344
:10159C000740C5F30728EDB20BB1A36AB3B9236AB0
:1015AC0098474046236A98472846236A9847374409
:1015BC00B74206D1A36998472369984702B0BDE8A2
:1015CC00F081E369984706F8010BF1E78DF8040008
:1015DC00032101A88DF805808DF8065098473946EF
:1015EC003046636A9847E5E71C0000202DE9F3417B
:1015FC0005461A4C0F46E36890469847636998472E
:10160C00A36A45F00406C5F30740F6B2C5F30725F7
:10161C00B3B9236A98472846236A98473046236A09
:10162C009847B844B84506D1A369984723699847A9
:10163C0002B0BDE8F081236A17F8010B9847F1E777
:10164C008DF80400032101A88DF805508DF8066073
:10165C00984741463846A36A9847E5E71C000020A6
:10166C00F8B500254401083404F5005704F504547A
:10167C003846FFF721FF06022046FFF71DFFB6B2E2
:10168C000644B6B24EB13846FFF716FF05022046A7
:10169C00FFF712FFADB20544ADB2B542E8D1284612
:1016AC00F8BDF8B500254401083404F5185704F5C5
:1016BC001C543846FFF700FF06022046FFF7FCFEDD
:1016CC00B6B20644B6B24EB13846FFF7F5FE050287
:1016DC002046FFF7F1FEADB20544ADB2B542E8D1FC
:1016EC002846F8BD2DE9F843894614462AB38500EF
:1016FC006F1CFF0007F510584046FFF7DDFE07F59D
:10170C00145706463846FFF7D7FE00EB062086B284
:10171C00023530022246494600EBC500FFF766FF52
:10172C00A11940468CB2C1F30721FFF7F3FE3846EE
:10173C00E1B2BDE8F843FFF7EDBEBDE8F8832DE953
:10174C00F843894614462AB385006F1CFF0007F541
:10175C0020584046FFF7B0FE07F52457064638469A
:10176C00FFF7AAFE00EB062086B2033530022246B4
:10177C00494600EBC500FFF7FFFEA11940468CB2AD
:10178C00C1F30721FFF7C6FE3846E1B2BDE8F843C6
:10179C00FFF7C0BEBDE8F88301221021014801F01B
:1017AC005FBA00BF0008014000221021014801F07F
:1017BC0057BA00BF0008014007B54FF0FF338DF852
:1017CC00070001220DF10701024801F06CFD03B086
:1017DC005DF804FBDC10002007B54FF0FF3301224D
:1017EC000DF10701034801F0F3FE9DF8070003B06B
:1017FC005DF804FBDC1000200C4A0D4B918810683E
:10180C009980D2F806101860C3F80610D2F80A10A6
:10181C00C3F80A10D2F80E10C3F80E10D2F812103A
:10182C00927DC3F812109A75704700BF48000020D3
:10183C000000002013B5194CFFF7DEFF0022012138
:10184C00204601F00DFA012000F0AEFF01222046E7
:10185C00114601F005FA4FF47A7000F0A5FF10491B
:10186C00104800F03BFB1049104800F045FB6B465C
:10187C000F4A104C1068516803C36946084600F0C3
:10188C008AFB204600F0CAFB2146002000F060FCD9
:10189C004FF4FA7000F088FF02B010BD000C01404C
:1018AC00A5170008B5170008C5170008E5170008AC
:1018BC0076470008000000200120014900F048BCD8
:1018CC000000002000B58BB004A800F0D5FB01206F
:1018DC00334900F0B9FC9DF815309DF810200393A6
:1018EC009DF81430012002939DF813302D4901937B
:1018FC009DF8123000939DF8113000F0A5FC00F01B
:10190C0023FD9DF819309DF8162001939DF8183091
:10191C000120254900939DF8173000F095FC00F04C
:10192C0013FD9DF821309DF81E2001939DF8203069
:10193C0001201E4900939DF81F3000F085FC00F03B
:10194C0003FD9DF81D309DF81A2001939DF81C3065
:10195C000120174900939DF81B3000F075FC00F036
:10196C00F3FC9DF825309DF8222001939DF824303E
:10197C000120104900939DF8233000F065FC00F025
:10198C00E3FC9DF826100C4B0C4A0120022908BFE1
:10199C001A460B4900F058FC0BB05DF804FB00BF75
:1019AC008647000895470008BA470008CD4700084D
:1019BC00E0470008F34700087F470008824700080B
:1019CC000648000807282DE9F84306460D46174639
:1019DC00994665D8440108342046FFF76DFD00F0A8
:1019EC000300012803D06FF00400BDE8F88304F570
:1019FC0040784046FFF760FD132854D12A88AB7815
:101A0C0052BA03EB0223EA78013A02EB03220332C7
:101A1C004CD8002F4DD0390A04F58050FFF77AFDD1
:101A2C00F9B204F58850FFF775FDB9F1100FDAD053
:101A3C002046FFF741FD0928D5D0294604F5406022
:101A4C00042204F58075FFF7D1FD04212846FFF729
:101A5C0061FD2846FFF730FD0028FAD1164B1B8894
:101A6C003341DA07C1D404F500744046FFF724FD76
:101A7C00172801D10120B8E72046FFF71DFD030709
:101A8C0006D520460821FFF745FD6FF00C00ACE7AA
:101A9C004046FFF711FD0028E7D16FF00300A4E7E3
:101AAC004FF0FF30A1E76FF002009EE76FF00B00E4
:101ABC009BE76FF00A0098E7CE0E00200728F8B5D8
:101ACC0004462DD8470107F1080607F58477102145
:101ADC003846FFF71FFD3846FFF7EEFC0546002899
:101AEC00F9D11F2106F50070FFF714FD0123A34067
:101AFC00DB430D499BB20A8806F540761A400A80F2
:101B0C000A4A11880B401380094B23F81450094BD7
:101B1C001D553046FFF7D0FC0028FAD10120F8BD46
:101B2C004FF0FF30FBE700BFCE0E0020CC0E0020A4
:101B3C00BC0E0020B30E002007282DE9F34104460B
:101B4C00884617461D4600F2828001F00F03013BC8
:101B5C000D2B7FD8DFE803F0071515157E7E7E7EF2
:101B6C007E15157E7E1504224FF470600DEB02017C
:101B7C00FFF702FD019B23B96FF0020002B0BDE834
:101B8C00F081680757D42DB1B8F1010F50D0B8F1DE
:101B9C00020F53D020466601FFF790FF083625F060
:101BAC000F01304648EA0101FFF7B4FC6FB94FF65C
:101BBC00F0712A4A17887B1C9BB28B4205BF4FF4ED
:101BCC0040434FF6EF7713801380390A06F5806097
:101BDC00FFF7A0FCF9B206F5A06006F58077FFF7D9
:101BEC0099FC01213846FFF795FC3846FFF764FC59
:101BFC000028FAD10123A340DB4319499BB20A8880
:101C0C0005F001051A40A5402A430A80154A06F53D
:101C1C00407611880B401380134B23F81400134BA0
:101C2C0018553046FFF748FC0028FAD060B2A5E7FB
:101C3C0015F0210FAED16FF005009FE7A90601D575
:101C4C002A06F8D5EB06A5D515F0800FF2E74FF074
:101C5C00FF3093E76FF0040090E700BF18000020FE
:101C6C00CE0E0020CC0E0020BC0E0020B30E0020A7
:101C7C000423FFF7A7BE00002DE9F74F0728054600
:101C8C001746019100F2A080460108363046FFF756
:101C9C0013FC00F00F00012840F09980002F00F099
:101CAC00998006F5407A5046FFF706FC172801D0BC
:101CBC001C2836D1DFF82481B8F800302B41DA0724
:101CCC0012D506F500742046FFF7F6FBC3062BD59C
:101CDC0010212046FFF71EFC0122B8F80030AA4064
:101CEC0023EA0203A8F8003006F5F850FFF7E4FBEE
:101CFC00800280B2B84228BF384601270446DFF87C
:101D0C00E0B0AF402846FFF7ABFC81465046FFF7EA
:101D1C00D3FB172814D01C2812D010B92846FFF773
:101D2C00CDFE6FF0060002E0000703D4002003B0E4
:101D3C00BDE8F08F2846FFF7C1FE6FF00C00F6E708
:101D4C00BBF800203A4228D0A145EFD30199224696
:101D5C002846FFF7C7FCB8F800302B41D9070AD545
:101D6C0006F500794846FFF7A7FBC30618D51021E6
:101D7C004846FFF7CFFB06F5807620213046FFF76B
:101D8C00C9FB3046FFF798FB0028FAD1B8F80030B1
:101D9C0020461F43A8F80070C9E7A145B2D3D5E788
:101DAC005046FFF789FB172809D01C2807D00028BC
:101DBC00B4D04846FFF780FB0207AFD4B1E7BBF8BD
:101DCC0000303B42CED0B1E74FF0FF30AFE76FF0C1
:101DDC000400ACE76FF00D00A9E700BFCC0E0020AB
:101DEC00CE0E00202DE9F04F072885B00646904610
:101DFC00019159D8450108352846FFF75DFB00F0E5
:101E0C000F07012F53D1B8F1000F53D005F5F05047
:101E1C00FFF752FB814605F540730293DFF8A0B043
:101E2C0005F5F853B74003933046FFF73AFC0446E8
:101E3C000298FFF741FB172814D01C280AD1BCB913
:101E4C003046FFF70DFC82460398FFF735FBBAEBE3
:101E5C00802F07D13046FFF731FE6FF0060005B03A
:101E6C00BDE8F08FBBF800203A4226D1002CDBD025
:101E7C004FEA892080B2404528BF4046A04228BF87
:101E8C00204684B201993046224605F58075FFF74D
:101E9C0056FC40212846FFF73DFB2846FFF70CFB7C
:101EAC000028FAD12046DAE74FF0FF30D7E76FF081
:101EBC000400D4E76FF00D00D1E70020CFE700BF9E
:101ECC00CE0E0020704700787047017070470020DC
:101EDC0070477047704770477047000000B109B9F0
:101EEC0002480349034BC3E905017047E31E000890
:101EFC00E51E00081C000020054B1A88920500D432
:101F0C00FEE700B109B903480349C3E9070170476B
:101F1C001C000020DB1E0008DF1E00087FB5062217
:101F2C0004A94FF41060FFF727FB04224FF48070D4
:101F3C000DEB0201FFF720FB02A904224FF4A06075
:101F4C00FFF71AFB042203A94FF47060FFF714FB90
:101F5C0080210020FFF7DEFA0020FFF7ADFA04A97C
:101F6C0006224FF41060FFF741FB04224FF48070FF
:101F7C000DEB0201FFF73AFB02A904224FF4A0601B
:101F8C00FFF734FB04224FF4706003A9FFF72EFB1C
:101F9C0007B05DF804FBF8B505460C46FFF7BEFF2D
:101FAC00D5B195F90030102B35DC2A46E91D12F815
:101FBC00010F03445BB2102B2DDC8A42F7D141F6A2
:101FCC00087642F20807013D304615F8011F20360D
:101FDC00FFF7A0FABE42F7D10CB90020F8BD94F976
:101FEC000030102B17DC2246E11D12F8010F0344C0
:101FFC005BB2102B0FDC9142F7D141F6086541F62C
:10200C000876013C284614F8011F2035FFF782FAA8
:10201C00B542F7D1E1E74FF0FF30DFE710B50446EA
:10202C00014606224FF41060FFF7E0FA04224FF449
:10203C00807004F10E01FFF7D9FA04224FF4A0606E
:10204C0004F10A01FFF7D2FA04224FF47060A11DCB
:10205C00FFF7CCFA064BA27C1A70E27C5A70227DF8
:10206C009A70627DDA70A27D024B1A7010BD00BFAF
:10207C00D10E0020D00E002010B5044601460622D9
:10208C004FF41060FFF778FA04224FF4807004F1DB
:10209C000E01FFF771FA04224FF4A06004F10A015B
:1020AC00FFF76AFA04224FF47060A11DFFF764FA7F
:1020BC00064B1A78A2745A78E2749A78DB782275F7
:1020CC006375034B1B78A37510BD00BFD10E0020A8
:1020DC00D00E002038B530F03A0504460AD1284617
:1020EC00FFF7EAF944EA0001C9B22846FFF712FAF1
:1020FC00284638BD4FF0FF30FBE70020FFF7DCB976
:10210C0010B5044601784FF4D850FFF703FA6188F4
:10211C004FF4C850090AFFF7FDF9A1784FF4D050DD
:10212C00BDE81040FFF7F6B938B504464FF4D85067
:10213C00FFF7C2F920704FF4C850FFF7BDF9054600
:10214C004FF4D050FFF7B8F900EB0520608038BD94
:10215C0010B50C4605281ED8DFE800F003080C115A
:10216C0015190846FFF75AFF002010BD0846FFF767
:10217C0083FFF9E70878BDE81040FFF7ABBFFFF726
:10218C00BCFF2070F0E70846FFF7BAFFECE7084603
:10219C00FFF7CAFFE8E74FF0FF30E6E770B50546FA
:1021AC00174CADF5836D4FF48062214606A801F003
:1021BC00F3FB29464FF4827206A801F0EDFB00F008
:1021CC0083FB00230293012301A902A80494059325
:1021DC0000F024FC20B100F089FB0DF5836D70BD7F
:1021EC00084E06AD00232146022055F8042B00F0C2
:1021FC00B1FB0028EFD10434B442F3D1EBE700BFBC
:10220C00007C00080080000810B50720FFF756FC82
:10221C00002301211A460720FFF78EFC07280446ED
:10222C0009D1074B07491A88FFF722FD012805D071
:10223C002046FFF743FC4FF0FF3010BD0020FCE7B9
:10224C00D6100020D81000200EB4F3B507AB53F80D
:10225C00046B224D0193224B4FF4007153F8203044
:10226C00204A284601F050FA32460446C0F5007167
:10227C00019B281801F0CEFA0444B4F5FF7F0CDA68
:10228C002B1913F8013C0A2B07D00D222A550A22D0
:10229C00631CEA54002302342B5503250F4EA7B2BE
:1022AC004FF47A70FFF708F917280ED0FFF7ACFF40
:1022BC0058B13220013D00F077FA15F0FF05EFD14F
:1022CC0002B0BDE8F04003B070473A4631460720F3
:1022DC00FFF7D2FC80B2A042EBD1F1E7D50E002083
:1022EC00CC480008104800080FB4F7B508AB53F8F9
:1022FC00042B4FF400711348019301F08BFA041E68
:10230C0012DD03250F4EA7B24FF47A70FFF7D4F805
:10231C0017280ED0FFF778FF58B13220013D00F09E
:10232C0043FA15F0FF05EFD103B0BDE8F04004B05F
:10233C0070473A4631460720FFF79EFC80B2844234
:10234C00EBD1F1E7D50E002008B54FF47A70FFF70A
:10235C00B3F818B9BDE80840FFF756BF08BD000038
:10236C00024B02681A60024B19807047D81000208B
:10237C00D610002000B591B02422002107A801F04E
:10238C0057FA1422002101A801F052FA022301216C
:10239C000693102306A8CDE90A1300F067FC01464A
:1023AC0008B172B6FEE70F23CDE90300CDE9013089
:1023BC00059001A800F030FE08B172B6FEE711B02E
:1023CC005DF804FB70B5102488B000F0C9F9FFF774
:1023DC00D1FF224600210DEB040001F029FA444BF9
:1023EC0021469A69434842F004029A619A6902258F
:1023FC0002F004020292029A9A69012642F0080243
:10240C009A619B69002203F008030393039B00F07D
:10241C0027FC002240F20121374800F021FC0494F3
:10242C000024344804A90795CDE9056400F04AFB63
:10243C0040F20123304804A9CDE90436CDE9064524
:10244C0000F040FB2C4804A9CDE90454069400F09C
:10245C0039FB4FF482732948294AC0E90244C0E988
:10246C0000234FF40073C0E906340A23C0E9044486
:10247C00C0E908448462C36200F0DAFE054608B184
:10248C0072B6FEE71F4C00F053F8FFF7D3F94FF488
:10249C00FA7000F089F9FFF70FFAA18B04F117001D
:1024AC00FFF75EFF18493046FFF7CEFEFFF74CFFF3
:1024BC002046FFF773FEFFF705FA04F1440301937E
:1024CC0004F124030093628C04F1640304F11E01F3
:1024DC002846FDF7DDFF0D4CFEF700F8024618B15B
:1024EC0021460320FFF7B0FEFFF72EFFF4E700BFF5
:1024FC000010024000080140000C0140DC100020DC
:10250C0000300140480000202C4800083B480008DF
:10251C00002208B54FF40071034800F0A1FB002223
:10252C00024B1A7008BD00BF000C01403411002092
:10253C007FB50023049303F1804303F504339A69B8
:10254C000B4842F008029A619B694FF4007203F049
:10255C0008030193019B0123CDE90223022302A965
:10256C00059300F0AFFAFFF7D3FF07B05DF804FB5B
:10257C00000C01400E4B82B09A6942F001029A6144
:10258C009A6902F001020092009ADA6942F08052D4
:10259C00DA61DB69074A03F080530193019B5368AE
:1025AC0023F0E06343F08063536002B0704700BFD8
:1025BC00001002400000014010B5044686B0102205
:1025CC00002102A801F034F92268164B9A4226D158
:1025DC0003F560439A69144842F480529A619A69EF
:1025EC0002A902F480520092009A9A6942F0040205
:1025FC009A619B69A02203F004030193019B0223BF
:10260C00CDE902230323059300F05CFA402100235B
:10261C000548CDE9021302A9049300F053FA06B061
:10262C0010BD00BF0030014000080140FEE7FEE78E
:10263C00FEE7FEE7FEE770477047704700F0A2B870
:10264C000B4A0346116810B509B90A4911601068A4
:10265C0009490A4C0344091B8B4206D901F070F955
:10266C000C2303604FF0FF3010BD1360FCE700BF7C
:10267C0038110020A81200200028002000040000BF
:10268C000F4B1A6842F001021A6059680D4A0A4051
:10269C005A601A6822F0847222F480321A601A6826
:1026AC0022F480221A605A6822F4FE025A604FF417
:1026BC001F029A604FF00062034B9A60704700BF94
:1026CC00001002400000FFF800ED00E0002103E0E4
:1026DC000B4B5B58435004310A480B4B42189A423F
:1026EC00F6D30A4A02E0002342F8043B084B9A4214
:1026FC00F9D3FFF7C5FF01F029F9FFF763FE704727
:10270C00004A000800000020A8010020A8010020B9
:10271C00A8120020FEE7000038B50E4B05461A78CB
:10272C004FF47A73B3FBF2F30B4A1068B0FBF3F07F
:10273C0000F08EF8044658B90F2D09D802462946E8
:10274C004FF0FF3000F054F82046044B1D6038BDAC
:10275C000120FCE7500100204C0100205401002016
:10276C00074A08B51368032043F01003136000F008
:10277C002DF80F20FFF7D0FFFFF7FCFE002008BD5F
:10278C0000200240034A044B11681B780B44136071
:10279C00704700BF3C11002050010020014B18680D
:1027AC00704700BF3C11002038B50446FFF7F6FF18
:1027BC000546631C1EBF044B1B78E418FFF7EEFFA5
:1027CC00431BA342FAD338BD500100200749030232
:1027DC00CA6803F4E06322F4E0621204120C13439F
:1027EC0043F0BF6343F40033CB60704700ED00E06F
:1027FC00154B30B5DC68C4F30224C4F10703251D66
:10280C00042B28BF0423062D4FF0FF3594BF002462
:10281C00033C05FA03F321EA0303A54022EA05026F
:10282C00A340002843EA0203ACBF00F16040074A12
:10283C004FEA0313DBB2ABBF00F5614000F00F00B1
:10284C0080F80033135430BD00ED00E014ED00E0CF
:10285C000138B0F1807F0BD24FF0E023F021054A14
:10286C00586182F823100020072298611A61704782
:10287C000120704700ED00E0114AD36813F01003FB
:10288C0005D01049CB6943F00203CB611023D26809
:10289C00500706D50B4943F00403CA6942F0010204
:1028AC00CA61074AD169C90708D50648C16941F010
:1028BC000401C161D16921F00101D161D36070477C
:1028CC000020024040110020064B186910F08000D7
:1028DC0007D0054A5A6002F188325A601869C0F371
:1028EC00C01070470020024023016745034A0020B6
:1028FC00136943F080031361704700BF002002404E
:10290C0070B50546FFF74AFF0646114CE368D80739
:10291C0012D4E368990644BF2023E360E368DA0627
:10292C0006D4E369DB0703D4E06810F0040007D099
:10293C00FFF7A2FF012003E06B1CE7D00DB90320C9
:10294C0070BDFFF72BFF801BA842DFD9F7E700BF54
:10295C00002002402DE9F84FDFF894A01F469AF8AA
:10296C0018300546012B884691463FD001234CF286
:10297C0050308AF81830FFF7C3FF90BB012D03D0FD
:10298C00022D14BF0425022500263346DFF864B05F
:10299C003401C4F12001A4F1200207FA01F129FA53
:1029AC0004F4CAF81C300C4327FA02F21443DBF887
:1029BC001020A4B242F00102CBF810204CF250309F
:1029CC0028F81640FFF79CFFDBF8102022F00102DC
:1029DC00CBF8102028B90136F2B295424FF0000323
:1029EC00D6D800238AF81830BDE8F88F0220FBE710
:1029FC0040110020002002400022064BDA61064BF9
:102A0C001A6942F002021A6158611A6942F04002D6
:102A1C001A61704740110020002002402DE9F0415E
:102A2C00264F05463B7E8846012B44D001243C763C
:102A3C0003684CF25030022B1AD1FFF761FF20B122
:102A4C00012000233B76BDE8F0811D4CF861236921
:102A5C004CF2503043F004032361236943F04003EC
:102A6C002361FFF74DFF236923F004032361E8E79B
:102A7C00FFF746FF0028E3D14FF0FF33C8F80030D2
:102A8C002046AE680E4CD5E9023203EB8223B342EA
:102A9C00D7D93046FFF7B0FF4CF25030FFF730FF7C
:102AAC00236923F00203236110B1C8F80060C8E762
:102ABC0006F58066E7E70220C5E700BF401100205D
:102ACC00002002402DE9F74F00224FF00F0E164662
:102ADC00DFF878C15E4B00F104080D6835FA06F496
:102AEC0002D103B0BDE8F08F012404FA06F705EA21
:102AFC00070437EA050572D14D68032D06D8013D50
:102B0C00022D7FD8DFE805F08F949A00122D00F08B
:102B1C00928066D8112D00F08880FF2C94BF8146DE
:102B2C00C1464FEA8605D9F8007088BF203D0EFAE1
:102B3C0005FA27EA0A0702FA05F52F43C9F80070CF
:102B4C00D1F8049019F0805F49D0DCF8185026F0C9
:102B5C00030745F00105CCF81850DCF8185007F1C4
:102B6C00804705F00105019507F5803706F0030A4B
:102B7C00019D4FEA8A0ABD680EFA0AFB25EA0B0B87
:102B8C00344DA8425ED005F58065A8425CD005F5B1
:102B9C008065A84214BF0325022505FA0AF545EA0B
:102BAC000B05BD601D6819F4803F14BF2543A54378
:102BBC001D605D6819F4003F14BF2543A5435D609B
:102BCC009D6819F4801F14BF2543A5439D60DD68E3
:102BDC0019F4001F14BF2C4325EA0404DC600136F1
:102BEC007BE7DFF874904D450CD015D8A9F580190A
:102BFC004D4507D009F570294D4503D0A9F580192D
:102C0C004D458AD18A68DAB1012A08BF07614FF0B5
:102C1C00080218BF476180E7DFF840904D45F1D0BE
:102C2C0009F58039ECE7CA6877E7CA68043274E7BB
:102C3C00CA68083271E7CA680C326EE700226CE78A
:102C4C0004226AE70025A8E70125A6E70010024048
:102C5C000004014000080140000022100000311067
:102C6C000AB1016170470904FBE700002DE9F3414B
:102C7C00054638B30368DB0710D42B689F075ED476
:102C8C002B68190700F195802B685A0700F1C18059
:102C9C00EB69002B40F02C81002029E0904C6368FC
:102CAC0003F00C03042B07D0636803F00C03082B10
:102CBC000AD16368DE0307D523689C03DDD56B68F6
:102CCC00002BDAD1012013E06B68B3F5803F12D1F1
:102CDC00236843F480332360FFF760FD06462368C6
:102CEC009803CAD4FFF75AFD801B6428F7D9032038
:102CFC0002B0BDE8F0819BB9236823F480332360D4
:102D0C00236823F480232360FFF748FD06462368DD
:102D1C009903B2D5FFF742FD801B6428F7D9E6E78B
:102D2C00B3F5A02F236803D143F480232360CFE7AE
:102D3C0023F480332360236823F48023CBE7684C8F
:102D4C00636813F00C0F07D0636803F00C03082BB7
:102D5C0010D16368DA030DD423689B0702D52B6965
:102D6C00012BAFD123686A6923F0F80343EAC2034D
:102D7C00236085E72A695B4B6AB101221A60FFF771
:102D8C000DFD064623689F07ECD4FFF707FD801B5B
:102D9C000228F7D9ABE71A60FFF700FD0646236857
:102DAC0098077FF56DAFFFF7F9FC801B0228F6D969
:102DBC009DE7AA694A4E4B4BE2B10122C3F880242D
:102DCC00FFF7ECFC0446736A9B070DD54FF4FA52DF
:102DDC00454B1B68B3FBF2F3019300BF019B5A1EDA
:102DEC000192002BF9D14FE7FFF7D8FC001B02280A
:102DFC00E9D97CE7C3F88024FFF7D0FC0446736A5A
:102E0C009F077FF541AFFFF7C9FC001B0228F6D9DD
:102E1C006DE7334CE369D80024D40127E36943F010
:102E2C008053E361E36903F080530093009B2F4EC2
:102E3C003368D90518D5EB68012B26D1236A43F0EA
:102E4C0001032362FFF7AAFC41F288380646236A85
:102E5C009B073FD5002F3FF41BAFE36923F0805352
:102E6C00E36115E70027E2E7336843F480733360CE
:102E7C00FFF794FC80463368DA05DCD4FFF78EFC50
:102E8C00A0EB08006428F6D931E7ABB9236A41F20C
:102E9C00883823F001032362236A23F0040323629E
:102EAC00FFF77CFC0646236A9807D3D5FFF776FC20
:102EBC00801B4045F7D91AE7052B236A03D143F051
:102ECC0004032362BAE723F001032362236A23F08D
:102EDC000403B6E7FFF762FC801B4045B7D906E751
:102EEC0000100240000042424C01002000700040E3
:102EFC002A4C626802F00C02082A3ED00022022BF7
:102F0C00274B1A662CD1FFF749FC0646236899011A
:102F1C0020D42B6AB3F5803F05D16268A96822F4EE
:102F2C0000320A436260696A62680B4322F47412CD
:102F3C001343012263601A4B1A66FFF72FFC0546F8
:102F4C0023689A013FF5A8AEFFF728FC401B022826
:102F5C00F6D9CCE6FFF722FC801B0228D6D9C6E6B0
:102F6C00FFF71CFC054623689B017FF595AEFFF728
:102F7C0015FC401B0228F6D9B9E6012B3FF4A2AE92
:102F8C0060682B6A00F480329A427FF49BAE6B6AC5
:102F9C0000F47010C01A18BF0120A9E600100240FE
:102FAC000000424230B5184B87B002AC03F110055B
:102FBC00224618685968083303C2AB421446F7D14D
:102FCC0040F201231149ADF804304B6803F00C02B8
:102FDC00082A17D1C3F3834218326A44DB0312F870
:102FEC00100C0CD54B680A4AC3F3404350431833BA
:102FFC006B4413F8143CB0FBF3F007B030BD054B39
:10300C005843FAE70248F8E76B4800080010024002
:10301C0000127A0000093D002DE9F0410D460446EE
:10302C0010B90120BDE8F081444A136803F007038E
:10303C008B4228D321688E0730D4CA0743D43F4A29
:10304C00136803F00703AB4265D822683C4D12F0BD
:10305C00040F6CD1130706D56B68226923F46053F7
:10306C0043EAC2036B60FFF79DFF6B68354AC3F3FD
:10307C000313D35CD840344B1860344B1868FFF7FB
:10308C004BFB0020CEE7136823F007030B431360C0
:10309C00136803F007038B42C3D1CBE7284B11F025
:1030AC00040F1EBF5A6842F4E0625A60080742BF20
:1030BC005A6842F460525A605A68A06822F0F002D2
:1030CC0002435A60B9E762681D4E012A33681AD16F
:1030DC0013F4003FA5D0736841F2883823F0030342
:1030EC0013437360FFF75AFB07467368626803F07B
:1030FC000C03B3EB820FA2D0FFF750FBC01B404573
:10310C00F3D903208EE7022A02D113F0007FE1E706
:10311C0013F0020FDEE7136823F007032B43136051
:10312C00136803F00703AB427FF47BAF8DE76B684A
:10313C00E16823F4E0630B436B608BE700200240F3
:10314C0000100240DC4800084C0100205401002013
:10315C00F8B504460E4615461F462268936836EAB3
:10316C00030301D000202DE06B1CF7D0FFF716FBFA
:10317C00C01B8542F1D823685A6822F0E0025A60DD
:10318C006268B2F5827F0AD1A268B2F5004F02D014
:10319C00B2F5806F03D11A6822F040021A60A26A5D
:1031AC00B2F5005F07D11A6822F400521A601A684F
:1031BC0042F400521A60012384F85130002303209A
:1031CC0084F85030F8BD38B5134642680446B2F561
:1031DC00827F16D18268B2F5004F02D0B2F5806FB3
:1031EC000FD12568B2F5806F286820F04000286068
:1031FC0007D10A4601212046FFF7AAFF20B900207B
:10320C0038BD0A468021F6E7636D032043F02003A6
:10321C006365F5E710B513460A4680210446FFF7AF
:10322C0097FF20B10320636D43F02003636510BD4D
:10323C0010B50446002834D00023836290F8513036
:10324C0003F0FF021BB980F85020FFF7B5F90223F9
:10325C00226884F851301368A16923F0400313608D
:10326C00D4E901300343E0680343206903436069F8
:10327C000343E0690343206A0343A06A034301F458
:10328C000070090C034301F0040113605160D36911
:10329C00002023F40063D3610123606584F851306E
:1032AC0010BD0120FCE72DE9F3411E4690F850308B
:1032BC000446012B0D46174600F09880012380F838
:1032CC005030FFF76BFA94F851308046012BD8B28E
:1032DC0040F08A80002D5BD0002F59D0032384F856
:1032EC0051300023A2686365C4E91033E786A363F9
:1032FC00E387A3872368B2F5004F08BF1A682563DC
:10330C0008BF42F48042A78608BF1A601A68E168B9
:10331C0052065EBF1A6842F040021A60B1F5006FA7
:10332C0062683ED10AB1012F07D135F8022BDA6061
:10333C002563E38E013B9BB2E386E38E9BB2A3B97C
:10334C00424631462046FFF765FF002849D1A36865
:10335C0033B901932368DA6801929B680193019B4E
:10336C00606D003818BF012012E02268936898073E
:10337C0005D5236B33F8021BD1602363D9E7FFF724
:10338C000DFAA0EB0800B042D7D3711CD5D00320A6
:10339C00012384F85130002384F8503002B0BDE88A
:1033AC00F0810AB1012F08D12A781A73236B0133EB
:1033BC002363E38E013B9BB2E386E38E9BB2002B2F
:1033CC00BED023689A68920702D5226B1278ECE77C
:1033DC00FFF7E4F9A0EB0800B042EED3731CECD07D
:1033EC00D5E720236365B2E70220D1E70220D5E7B9
:1033FC002DE9F7431E4690F850300446012B0D463C
:10340C009146DDF8288000F0E180012380F85030EF
:10341C00FFF7C4F994F851300746012B6268D9B212
:10342C000AD0B2F5827F40F0CF80A368002B40F029
:10343C00CB80042940F0C88015B1B9F1000F09D137
:10344C000120012384F85130002384F8503003B05C
:10345C00BDE8F083002EF3D094F85130C4F83890C6
:10346C00042B1CBF052384F8513000236365C4E989
:10347C0010332368E687E6861968A687490658BF85
:10348C001968256358BF41F04001A68658BF1960E2
:10349C00E168B1F5006F48D10AB1012E07D135F8BA
:1034AC00022BDA60E38E2563013B9BB2E386012598
:1034BC00E38E9BB263B9E38F9BB24BB93A4641465C
:1034CC002046FFF7A7FE002872D020236365B7E7DC
:1034DC0021688B689A070DD5E38E9BB253B145B129
:1034EC00236B33F8022BCA602363E38E013B9BB240
:1034FC00E38600258A6812F001020CD0E38F9BB2A0
:10350C004BB11546C968A36B23F8021BA363E38F69
:10351C00013B9BB2E387FFF741F9C01B4045C7D382
:10352C00B8F1FF3FC4D003208BE70AB1012E08D1BC
:10353C002A781A73236B01332363E38E013B9BB20E
:10354C00E3860125E38E9BB21BB9E38F9BB2002B64
:10355C00B4D0226893689B070ED5E38E9BB25BB107
:10356C004DB1236B1B781373236B01332363E38EF1
:10357C00013B9BB2E38600252268916811F00101A2
:10358C000DD0E38F9BB253B10D46D268A36B1A706A
:10359C00A36B0133A363E38F013B9BB2E387FFF77C
:1035AC00FDF8C01B4045CDD3B8F1FF3FCAD0BAE7F8
:1035BC00A368002B7FF445AF23680190DA68019271
:1035CC009B680193019B3CE702203AE702203EE70F
:1035DC002DE9F7431D4643680446B3F5827F8946BF
:1035EC0017460CD1836853B9042380F85130134625
:1035FC0000950A46FFF7FCFE03B0BDE8F08394F893
:10360C005030012B7DD0012384F85030FFF7C6F8E1
:10361C0094F851308046012BD8B270D1B9F1000F1B
:10362C005AD0002F58D004230026A26884F85130B9
:10363C0023686665B2F5004FE787E68608BF1A680F
:10364C00C4E9106608BF22F480422663A686C4F83B
:10365C003890A78708BF1A601A6856065EBF1A68AA
:10366C0042F040021A60E368F3B1E38F9BB2FBB106
:10367C0023689A68D20736D5DA68A36B23F8022B35
:10368C00A363E38F013B9BB2E387EEE723689A6861
:10369C00D00718D51B7BA26B1370A36B0133A363EC
:1036AC00E38F013B9BB2E387E38F9BB2002BEDD101
:1036BC00424629462046FFF786FDE8B9606D003882
:1036CC0018BF012008E0FFF769F8A0EB0800A8423A
:1036DC00EAD3691CE8D00320012384F8513000237D
:1036EC0084F8503088E7FFF759F8A0EB0800A8429F
:1036FC00BBD36B1CB9D0EEE720236365DEE7022059
:10370C00EAE7022078E700000CB430B5184B0C1E29
:10371C001D689DB008DA8B234FF0FF302B601DB075
:10372C00BDE8304002B070474FF40273ADF814306E
:10373C004FF000031B930CBF234604F1FF3304939B
:10374C0007934FF6FF7302900690ADF8163028469B
:10375C0021AB209A02A9019300F07EFA431CBCBF56
:10376C008B232B60002CDAD00022029B1A70D6E738
:10377C00580100200EB46FF0004110B500249DB02C
:10378C001FAB02900690079104910948094953F820
:10379C00042B0591006802A901931B9400F05CFABC
:1037AC00029B1C701DB0BDE8104003B0704700BFF9
:1037BC00580100200802FFFF30B51446002C0546C6
:1037CC001A469BB005DA8B2303604FF0FF301BB019
:1037DC0030BD4FF40273ADF80C304FF00003199369
:1037EC000CBF234604F1FF33029305934FF6FF738E
:1037FC0000910491ADF80E3069461E9B00F02CFA36
:10380C00431CBCBF8B232B60002CE0D00022009B00
:10381C001A70DCE707B5009313460A4601460348C5
:10382C000068FFF7C9FF03B05DF804FB58010020E6
:10383C0003460244934200D1704703F8011BF9E799
:10384C000346C9B2184613F8012B12B18A42F9D1BA
:10385C007047002918BF002070470000024B01463A
:10386C00186800F003B800BF5801002070B504467A
:10387C0008460D46FCF764FC461C3146204600F019
:10388C0003F9044618B13246294600F085F8204663
:10389C0070BD10B56AB10139841810F8012B11F8FC
:1038AC00013F9A4203D1A04201D0002AF5D1D01A8F
:1038BC0010BD1046FCE70A7870B56AB970BD9A4223
:1038CC0009D10C46054614F8013F002BF6D015F82B
:1038DC00016F9E42F7D001300378002BEFD11846D0
:1038EC00ECE70000DFB54FF0FF364FF0FF370A4B27
:1038FC000446002269461868CDE9006700F00EF80E
:10390C00002801DACDE90067DDE900010CB1C4E95A
:10391C00000104B0D0BD00BF5801002038B5002311
:10392C00064D0446084611462B6000F08FFC431CE4
:10393C0002D12B6803B1236038BD00BF9812002060
:10394C00014B1868704700BF5801002070B5002665
:10395C000C4D0D4C641BA410A64209D100F07EFC4A
:10396C0000260A4D0A4C641BA410A64205D170BD5A
:10397C0055F8043B98470136EEE755F8043B984759
:10398C000136F2E7F8490008F8490008F849000840
:10399C00FC490008704770470A44914200F1FF331C
:1039AC0000D1704710B511F8014B914203F8014F4B
:1039BC00F9D110BD38B50546002940D051F8043C6A
:1039CC000C1F002BB8BFE41800F0DEF81C4A13687B
:1039DC0033B9636014602846BDE8384000F0DAB8AB
:1039EC00A34208D9206821188B4201BF19685B6873
:1039FC0009182160EDE71A465B680BB1A342FAD9AE
:103A0C0011685018A0420BD1206801445018834211
:103A1C001160E0D118685B68084410605360DAE705
:103A2C0002D90C232B60D6E7206821188B4201BFEA
:103A3C0019685B680918216063605460CBE738BD76
:103A4C00A412002070B50F4E0C463168054611B912
:103A5C0000F0A8FB30602146284600F0A3FB431C75
:103A6C0003D14FF0FF34204670BDC41C24F0030476
:103A7C00A042F8D0211A284600F094FB0130F2D174
:103A8C00EFE700BFA01200202DE9F843CD1C25F074
:103A9C00030508350C2D38BF0C25002D064601DB1F
:103AAC00A94204D90C2333600020BDE8F883DFF869
:103ABC00D48000F069F8D8F800301C4644BB294685
:103ACC003046FFF7BFFF431C044658D1D8F80040DE
:103ADC002746002F43D1002C4BD023683946304663
:103AEC0004EB030900F05EFB814542D121683046AE
:103AFC006D1A2946FFF7A6FF01303AD023682B44F4
:103B0C002360D8F800305A6862BBC8F800700FE028
:103B1C002268521B20D40B2A17D96119A3422560A5
:103B2C0018BF5960636808BFC8F8001062514B6039
:103B3C00304600F02FF804F10B00231D20F0070095
:103B4C00C21A1CBF1B1AA350AFE76268A3420CBF7A
:103B5C00C8F800205A60EBE723466468AEE73C46A1
:103B6C007F68B6E71A465B68A342FBD1002353601B
:103B7C00DEE70C233046336000F00CF894E7056068
:103B8C00D6E700BFA41200200148FFF703BF00BF17
:103B9C009C1200200148FFF7FEBE00BF9C120020C3
:103BAC002DE9F0471F468E688246BE420C46904671
:103BBC000B682DD8B1F90C2012F4906F26D06569E2
:103BCC00096905EB4505A3EB010905EBD5757B1CD4
:103BDC004B446D109D4238BF1D46530527D52946D1
:103BEC00FFF752FF064660B34A462169FFF7D4FE41
:103BFC00A38923F4906343F08003A38126614E4490
:103C0C0026603E466561A5EB0905A560BE4200D95C
:103C1C003E4632464146206800F0AAFA0020A368CE
:103C2C009B1BA360236833442360BDE8F0872A46BE
:103C3C0000F0D6FA06460028E0D150462169FFF77D
:103C4C00B9FE0C23CAF80030A3894FF0FF3043F0C3
:103C5C004003A381E9E700002DE9F04F98468B89DA
:103C6C0007461B060D4614469DB010D50B6973B95B
:103C7C004021FFF709FF2860286130B90C233B6015
:103C8C004FF0FF301DB0BDE8F08F40236B61002377
:103C9C00099320238DF8293030234FF00109CDF8FA
:103CAC000C80DFF898818DF82A3023469A4613F859
:103CBC00012B0AB1252AF9D1BAEB040B0BD05B46C8
:103CCC00224629463846FFF76BFF013000F0A780EB
:103CDC00099A5A4409929AF80030002B00F09F8000
:103CEC0000234FF0FF32CDE905230AF1010A0493BA
:103CFC0007938DF853301A935446052214F8011B80
:103D0C004E4800F05FFA049AD8B9D00644BF20237D
:103D1C008DF85330110744BF2B238DF853309AF88C
:103D2C0000302A2B15D0544600204FF00A0C079A6D
:103D3C00214611F8013B303B092B4BD9B0B107920E
:103D4C0014E0A0EB080309FA03F31343A24604930F
:103D5C00D2E7039B191D1B680391002BBBBF5B4271
:103D6C0042F0020207930793B8BF049223782E2BDC
:103D7C000AD163782A2B32D1039B02341A1D1B689B
:103D8C00039243EAE3730593DFF8B4A00322504691
:103D9C00217800F017FA38B14022049BA0EB0A00FE
:103DAC00824013430134049314F8011B0622254866
:103DBC008DF8281000F006FA002836D0224B1BBBD9
:103DCC00039B073323F0070308330393099B334406
:103DDC0009936AE70C4601200CFB0232A8E700238A
:103DEC004FF00A0C194601340593204610F8012BAC
:103DFC00303A092A03D9002BC6D00591C4E70446F2
:103E0C0001230CFB0121F0E703AB00932A46384653
:103E1C000E4B04A9AFF30080421C0646D6D1AB89E9
:103E2C005B063FF52DAF09982CE703AB00932A46B0
:103E3C003846064B04A900F07DF8EDE77C480008F5
:103E4C00824800088648000800000000AD3B0008CE
:103E5C002DE9F047164698468A680B690746934247
:103E6C00B8BF1346336091F843200C46DDF8209020
:103E7C000AB1013333602368990642BF33680233B9
:103E8C003360256815F0060506D104F1190AE368BC
:103E9C0032689B1AAB422BDC94F843302268003B0F
:103EAC0018BF0123920630D44146384604F1430230
:103EBC00C847013023D02368226903F00603042B82
:103ECC0014BF002533684FF0000608BFE56804F105
:103EDC001A0408BFED1A54F8123C08BF25EAE57520
:103EEC009342C4BF9B1AED18B5421AD1002008E0CA
:103EFC000123524641463846C847013003D14FF0A2
:103F0C00FF30BDE8F0870135C1E73020E11881F8BA
:103F1C0043005A1C94F845102244023382F8431093
:103F2C00C2E70123224641463846C8470130E6D055
:103F3C000136D9E72DE9FF470F7E9146782F804651
:103F4C000C469A460C9E01F1430207D8622F0AD800
:103F5C00002F00F0D180582F00F0B88004F14206F9
:103F6C0084F842703AE0A7F16303152BF6D801A14F
:103F7C0051F823F0D93F0008ED3F0008693F0008D5
:103F8C00693F0008693F0008693F0008ED3F0008E1
:103F9C00693F0008693F0008693F0008693F000855
:103FAC00EB40000817400008A5400008693F0008D6
:103FBC00693F00080D410008693F000817400008E0
:103FCC00693F0008693F0008AD40000833681A1DBE
:103FDC001B68326004F1420684F8423001239CE0F5
:103FEC0033682068191D3160060601D51D6803E091
:103FFC004506FBD5B3F90050002D03DA2D236D4295
:10400C0084F843300A23584811E0216833680806C5
:10401C0053F8045B02D4490648BFADB26F2F33602E
:10402C0014BF0A2308235048002184F84310666803
:10403C00002EA66005DB21682E4321F004012160CF
:10404C004BD01646B5FBF3F103FB1157C75D06F8D1
:10405C00017D2F46BB420D46F4D9082B0BD12368AA
:10406C00DF0708D5236961689942DEBF302306F863
:10407C00013C06F1FF36921B22614B46214640461D
:10408C00CDF800A003AAFFF7E3FE01304AD14FF0B0
:10409C00FF3004B0BDE8F087236843F020032360B1
:1040AC007827324884F84570236831681F0651F828
:1040BC00045B02D45F0648BFADB23160D90744BF80
:1040CC0043F0200323601DB11023ADE72648E9E738
:1040DC00236823F020032360F6E71646BDE7336818
:1040EC002568181D616930602E061B6801D51960A2
:1040FC0002E06806FBD51980002316462361BCE755
:10410C00336800211A1D32601E686268304600F068
:10411C0059F808B1801B606063682361002384F840
:10412C004330AAE73246494640462369D04701301E
:10413C00ADD023689B0713D4E068039B9842B8BFAB
:10414C001846A6E70123324649464046D04701307F
:10415C009DD00135E36803995B1AAB42F2DCEBE7C7
:10416C00002504F11906F5E78D4800089E48000863
:10417C00884210B501EB020402D98442234607D8C9
:10418C00431EA14208D011F8012B03F8012FF8E7C8
:10419C00014602448A4200D110BD13F8014D02F8C9
:1041AC00014DF7E738B50023054D044608462B6052
:1041BC00FEF746FA431C02D12B6803B1236038BDCD
:1041CC0098120020034610B5C9B202449342184617
:1041DC0001D1002003E0047801338C42F6D110BDEC
:1041EC002DE9F041074614460D4621B91146BDE8AC
:1041FC00F041FFF749BC2AB9FFF7DCFB25462846FE
:10420C00BDE8F08100F01AF88442064602D8B4EBFF
:10421C00500FF4D821463846FFF736FC804608B9D3
:10422C004546ECE7B4422246294628BF3246FFF702
:10423C00B3FB29463846FFF7BDFBF1E751F8043CC8
:10424C00181F002BBCBF0B58C01870475822024BCC
:10425C004FF0FF301A60704798120020F8B500BF7D
:10426C00F8BC08BC9E467047F8B500BFF8BC08BC4B
:04427C009E467047A3
:104280004D44350061757468004469676573742036
:10429000757365726E616D653D222573222C2072E7
:1042A00065616C6D3D222573222C207572693D225B
:1042B0002573222C20726573706F6E73653D222505
:1042C0007322002C206F70617175653D2225732269
:1042D000002C20716F703D25732C206E6F6E63650E
:1042E0003D222573222C20636E6F6E63653D22256F
:1042F000303878222C206E633D25303878004F50BE
:1043000054494F4E530047455400484541440050DE
:104310004F5354005055540044454C4554450054A7
:104320005241434500253032780025733A25733ACF
:1043300025730025733A25733A253038783A2530AD
:1043400038783A25733A257300485454505F5354D3
:104350004154455F434F4E4E4543543A20736F637B
:104360006B20636F6E6E65637465640A0047455425
:1043700020257320485454502F312E310D0A486F98
:1043800073743A2025642E25642E25642E25640D31
:104390000A557365722D4167656E743A20707974A1
:1043A000686F6E2D72657175657374732F322E325E
:1043B000352E310D0A4163636570742D456E636F50
:1043C00064696E673A20677A69702C206465666C50
:1043D0006174650D0A4163636570743A202A2F2A5F
:1043E0000D0A436F6E6E656374696F6E3A206B657C
:1043F00065702D616C6976650D0A0D0A00524543A2
:10440000565F4F4E43453A20747279696E67207447
:104410006F20726563762025642062797465730A63
:1044200000485454502F312E312032303000535533
:1044300043434553533A20416C726561647920636C
:104440006F6E6E6563746564212053746172746964
:104450006E672073747265616D2E2E2E0A003430E3
:104460003120556E617574686F72697A65640057A2
:1044700057572D41757468656E7469636174650082
:104480007265616C6D006E6F6E6365006F70617157
:10449000756500716F7000616C676F726974686D2B
:1044A0000045787472616374656420617574682076
:1044B000706172616D733A207265616C6D3D257338
:1044C0002C206E6F6E63653D25732C206F706171BB
:1044D00075653D25732C20716F703D25732C20610F
:1044E0006C676F726974686D3D25730A0044696773
:1044F000657374207265616C6D3D222573222C20DA
:10450000716F703D222573222C206E6F6E63653DA6
:10451000222573222C206F70617175653D222573F1
:10452000222C20616C676F726974686D3D2225735F
:10453000220061646D696E007364665344463534CD
:104540003300485454502F312E3100436F6E6E6546
:1045500063746564207375636365737366756C6CEF
:10456000792C20737769746368696E6720746F2093
:1045700073747265616D206D6F64650A00485454F0
:10458000505F53544154455F53454E445F41555429
:10459000480A00726573756C743A2025730A0047E7
:1045A000455420257320485454502F312E310D0A84
:1045B000486F73743A2025642E25642E25642E25B9
:1045C000640D0A557365722D4167656E743A2070EB
:1045D0007974686F6E2D72657175657374732F329F
:1045E0002E32352E310D0A4163636570742D456E90
:1045F000636F64696E673A20677A69702C2064651E
:10460000666C6174650D0A4163636570743A202AB3
:104610002F2A0D0A436F6E6E656374696F6E3A20C0
:104620006B6565702D616C6976650D0A41757468FE
:104630006F72697A6174696F6E3A2025730D0A0D85
:104640000A004661696C656420746F20637265615D
:10465000746520736F636B65740A004661696C65ED
:104660006420746F20636F6E6E65637420736F6374
:104670006B65740A0053454E44494E4720524551DC
:10468000554553543A2025730A00485454505F53FB
:10469000544154455F53545245414D3A207374611F
:1046A00072742073747265616D696E672E2E2E0AA6
:1046B000002257686974654C6973742200576869F1
:1046C00074654C69737420506C6174652064657402
:1046D00065637465643A2025730A0053545245415A
:1046E0004D3A207065657220636C6F73656420635A
:1046F0006F6E6E656374696F6E0A00535452454164
:104700004D3A20736F636B657420636C6F736564DF
:1047100020627920706565720A0022506C617465B0
:104720004E756D626572220053656E642066616924
:104730006C6564206166746572207265636F6E6E6D
:104740006563740A0080006E6F6E63653D0072657C
:10475000616C6D3D00716F703D00617574682D690D
:104760006E74006F70617175653D00616C676F728A
:104770006974686D3D000202020202020202004FEB
:104780004E004F4646005735353030204E6574494F
:104790006E666F3A0020204D41432020253032586C
:1047A0003A253032583A253032583A253032583A84
:1047B000253032583A2530325800202049502020E8
:1047C0002025642E25642E25642E25640020204794
:1047D0005720202025642E25642E25642E25640074
:1047E00020204D41534B2025642E25642E25642E18
:1047F0002564002020444E53202025642E25642E5D
:1048000025642E2564002020444843502025730051
:104810005B25735D2000444542554700494E464F95
:10482000005741524E004552524F5200486920668F
:10483000726F6D2073746D33320A00687474705F28
:104840006469676573745F70726F63657373282939
:104850002066696E697368656420696E2074686596
:10486000206C6F6F703A2025640A0002030405066D
:104870000708090A0B0C0D0E0F101000232D302B0A
:104880002000686C4C006566674546470030313251
:1048900033343536373839414243444546003031A8
:1048A0003233343536373839616263646566000007
:1048B000FE420008064300080A4300080F430008B0
:1048C00014430008184300081F4300081648000856
:1048D0001C48000821480008264800080000000085
:1048E0000000000001020304060708090020202040
:1048F0002020202020202828282828202020202090
:10490000202020202020202020202020208810105F
:1049100010101010101010101010101010040404BB
:104920000404040404040410101010101010414179
:104930004141414101010101010101010101010167
:10494000010101010101010110101010101042427B
:104950004242424202020202020202020202020237
:1049600002020202020202021010101020000000D7
:104970000000000000000000000000000000000037
:104980000000000000000000000000000000000027
:104990000000000000000000000000000000000017
:1049A0000000000000000000000000000000000007
:1049B00000000000000000000000000000000000F7
:1049C00000000000000000000000000000000000E7
:1049D00000000000000000000000000000000000D7
:1049E00000000000000000000000000000000000C7
:0849F0005CB7FF7F010000002D
:0449F8003101000881
:0449FC000D010008A1
:104A00000008DC112233C0A801ABFFFFFF00C0A8E3
:104A1000010108080808010000C000000002573525
:104A20003530300000000000D11E0008E11E0008F3
:104A3000E31E0008E51E0008D31E0008D71E00086C
:104A400000000000000000000008DC567823C0A829
:104A50000A03FFFFFF00C0A80A010808080801C0F8
:104A6000A80A02003930C0A80A02881361646D697F
:104A70006E000000000000000000000000000000C8
:104A80000000000000000000000000007364665396
:104A900044463534330000000000000000000000F0
:104AA0000000000000000000000000002F000000D7
:104AB00000000000000000000000000000000000F6
:104AC00000000000000000000000000000000000E6
:104AD00000000000000000000000000000000000D6
:104AE00000000000000000000000000000000000C6
:104AF00000000000000000000000000000000000B6
:104B000000000000000000000000000000000000A5
:104B10000000000000000000000000000000000095
:104B20000000000000000000000000000000000085
:104B30000000000000000000000000000000000075
:104B40000000010000000000000000000024F4004C
:104B500001000000100000005C01002000000000C7
:104B600060110020C8110020301200200000000059
:104B70000000000000000000000000000000000035
:104B80000000000000000000000000000000000025
:104B90000000000000000000000000000000000015
:084BA00000000000000000000D
:04000005080026D9F0
:00000001FF
